:020000040800F2
:10000000300E002051350008E70E0008E90E000808
:10001000EB0E0008ED0E0008EF0E000800000000D7
:10002000000000000000000000000000F10E0008C9
:10003000F30E000800000000F50E0008F70E00089F
:1000400095350008993500089D350008A135000850
:10005000A5350008A9350008AD350008B135000800
:10006000B5350008B9350008BD350008C1350008B0
:10007000C5350008C9350008CD350008D135000860
:10008000D5350008D9350008DD350008E135000810
:10009000E5350008E9350008ED350008F1350008C0
:1000A000F5350008F9350008FD350008013600086F
:1000B00005360008093600080D360008113600081C
:1000C00015360008193600081D36000821360008CC
:1000D000253600082D240008293600082D36000892
:1000E00031360008353600083936000840F0200067
:1000F00070472DE9F14FB0B0914604910DF14201E6
:100100003A9A21914A7000210DF195021E460D91F7
:100110002F920BE019F8011B0498309A90470028A1
:10012000049000F067850D98401C0D9099F8000030
:1001300050B12528EED100210022079108920991A3
:100140000A920B910C9204E00D9800F055BD41F01D
:10015000010119F8010F2028F9D023280CD02B28F1
:1001600004D02D2805D0302809D00BE041F0020141
:10017000EFE741F00401ECE741F00801E9E741F065
:100180001001E6E72A280DD1326852F8040B3260DC
:1001900000280F9003D540420F9041F0040109F16F
:1001A000010914E00F92DFF8B03B0AE00F98984283
:1001B00005DA00EB800402EB4402303A0F9209F1B9
:1001C000010999F80020A2F130000A28EED399F82D
:1001D00000002E2803D04FF0FF320E9227E019F8CE
:1001E000010F2A2807D1306850F8042B30600E9296
:1001F00009F101091BE02D280CBF09F101090020BC
:1002000000220E92DFF8504B0BE040B90E9AA2424A
:1002100005DA02EB820503EB4503303B0E9309F14F
:10022000010999F80030A3F130020A2AEDD3ADF8A4
:1002300040100FF6683099F8001000F001FE08B188
:1002400019F8010B8DF842009DF84200682805D18D
:1002500099F8000068280CD1622106E06C2804BFE0
:1002600099F800006C2804D171218DF8421009F131
:10027000010912A9069119F8012B8DF800201746E3
:10028000B7F1250026D02038022840F279811338B2
:1002900000F0F0830B3800F07A84401E00F02F84C9
:1002A000401E022840F26C81001F00F02884401F8D
:1002B00000F0EC80401E00F0DD83401E00F0D7808F
:1002C000C01E0CD0801E00F0D583C01E00F0D2836B
:1002D00000F066BC01220792252100F05EBC306868
:1002E00050F8044B3060002C059440F0AD8021990B
:1002F0004878002800F0A4804FF0FF340FF6D42097
:1003000000F0B6FD201A40F0758400F057BC0123C0
:100310006A4602A9384600F029FD002840F06A84A8
:100320006D1EF4D13097079D0DF1480875B1309FCF
:1003300018F8011B0498B8470028049000F05A846C
:100340000D98401C6D1E0D90F2D130970A9D302102
:10035000002D8DF800100CDD309F01236A4602A9A4
:10036000384600F003FD002840F044846D1EF4D1AF
:100370003097DDF81480089D75B1309F18F8011B87
:100380000498B8470028049000F034840D98401C6D
:100390006D1E0D90F2D130970B9D3021002D8DF800
:1003A00000100CDD309F01236A4602A9384600F098
:1003B000DDFC002840F01E846D1EF4D130970598B6
:1003C0000899099D00EB010875B1309F18F8011BD1
:1003D0000498B8470028049000F00C840D98401C45
:1003E0006D1E0D90F2D130970C9D3021002D8DF8AF
:1003F00000100CDD309F01236A4602A9384600F048
:10040000B5FC002840F0F6836D1EF4D130979DF8BE
:10041000400041077FF58AAE2020002C8DF80000B7
:100420007FF784AE309D01236A4602A9284600F07A
:100430009DFC002840F0DE83641EF4D1309575E603
:100440000FF6AC100590B9E30E9D002D04D52046A3
:1004500000F02EFD044608E02A460021204600F068
:100460004BFD002814BF041B2C460894A6E33168FA
:1004700051F8040B316020F00004002121F0FF3519
:10048000CDE9024512AB059378217CE321994878A8
:1004900020B14FF0FF340FF60C1031E79DF8420009
:1004A000622853D0682815D06A2836D06C2806D028
:1004B00071283CD0742825D07A2818D053E03168B0
:1004C00051F8040B3160002857D14FF0FF340FF67C
:1004D000EC0015E7316851F8040B316020B94FF09A
:1004E000FF340FF6D8000BE70D99018066E3316801
:1004F00051F8040B316000283FD14FF0FF340FF664
:10050000BC00FDE6316851F8040B3160002834D19D
:100510004FF0FF340FF6A400F2E6316851F8040BF7
:10052000316070B94FF0FF340FF69000E8E63168A3
:1005300051F8040B316020B94FF0FF340FF67C0006
:10054000DEE60D9AD317C0E9002337E3316851F88E
:10055000040B316020B94FF0FF340FF66000CFE696
:100560000D9901702AE3316851F8040B316020B90C
:100570004FF0FF340FF64400C2E60D9901601DE311
:100580009DF842004C2807BF3168CA1D3068C21D63
:1005900022F007023260D2E9000108323260CDE970
:1005A0000201C80F02D007982D210AE0BDF84000D3
:1005B000810702D507982B2103E0C00705D50798CE
:1005C000202112AA1154401C079012A8079945181F
:1005D000DDE90201CDE92201059525AC0E98002840
:1005E00048BF062007D402BF9DF8000040F020005D
:1005F000672801D101200E90DDE902014A0042EA9C
:10060000D07253154FEAE27B4FF0FF32934508BF9B
:1006100093420FD1090341EA10510003002908BF9A
:10062000002807D0613F03201A2F089017D30FF23C
:10063000C8710FE0DDE902014A00521512F1010F05
:1006400010D108030ED1613F03201A2F08901AD34E
:100650000FF2AC710322284600F07AFCAEE20FF2F2
:100660009471F7E7DDE9020101AA00F0C5FCCDE9CC
:10067000020120F0000231F0004308BF002A05D13A
:1006800000270025B7E00FF27471E3E70199DFF866
:10069000CC2647F29750414391FBF2F20192DDE9FB
:1006A0002245C2F10702002A25F0004504DD20465C
:1006B000294600F02EFB0BE052420020DFF8A01686
:1006C00000F027FB02460B462046294600F0CCFCF2
:1006D00004469DF8000040F0200A0D46BAF1660F6E
:1006E00006BF019800F10A084FF006080E988044F2
:1006F000B8F1140FC8BF4FF0140830208DF89400E3
:100700000DF19507B8F1000F36DD2046294600F0BF
:10071000CFFD01460A4607F1080304200A27B2FB71
:10072000F7F707EB870EA2EB4E02303203F8012CED
:100730000A22B7FBF2F202EB820EA7EB4E0730372C
:10074000401E03F8027DE9D1A8F10808B8F1000FB6
:1007500003F10807D6DD084600F0BCFD02460B4653
:100760002046294600F082FE0022DFF8F83500F02E
:10077000EFFE04460D46C8E72F983F1A0DF1950489
:1007800004E00198401E7F1E0190641C20783028F0
:10079000F7D0BAF1660F02D10198401C04E0BAF11B
:1007A000650F0CBF012000200E9940188742B8BF8A
:1007B000781E00281DD4B84204DA215C3429C8BF51
:1007C000392100DC30210246631E9D1800E0401EE6
:1007D00015F80179521E8F42F9D0392902D1A15C56
:1007E000491CA154002A04D50199491C1C46401CEF
:1007F00001910746019D9DF800B000F07FFF406A1F
:1008000090F80080DDF838A038B2002802DC01271B
:100810000FF2F0544BF02000662808BF6D1C16D074
:1008200067285BD128B210F1040F43DB504541DA51
:100830009DF840006D1C010703D438B25045D8BF65
:10084000824628B2BAEB000A48BF4FF0000A0FFAFE
:1008500085FBBBF1000F00F3AA800898411C0891AA
:10086000302205990A54BAF1000F03DC9DF84000CC
:10087000010705D50898411C0891059901F80080E9
:100880001AEB0B0FB8BFCAF100052DB26842AA449B
:100890003AB20B909245B8BF5746059B08983FB2B5
:1008A00009973A462146184400F052FBAAEB07008C
:1008B0000C90C8E038B2504504DA9DF840100A07A1
:1008C00058BF8246BAF1010A48BF4FF0000ABBF197
:1008D000670F0CBF4FF0650B4FF0450B0898411C9C
:1008E0000891BAF1000F059914F8012B0A5403DCA2
:1008F0009DF8400001071BD50898411C0891BAF1EA
:10090000000F059901F8008012DD7F1E38B2824584
:10091000B8BF57460598089B3AB22146184400F0E4
:1009200017FB08993FB279180891AAEB07000B90C2
:100930000598089908442AB2002A80F800B003D428
:100940002B224270811C04E02D2141701546811C30
:100950006D42002022AA0A2409E02B4693FBF4F5FD
:1009600005EB8507A3EB470302F8013B401C2DB2C2
:10097000002DF2DC012806DC4BF02002652A04BFC2
:10098000302201F8012B002822AA08D1302001F8DA
:10099000010B06E0401E135C303301F8013B0028D8
:1009A000F8DC059A08981044091A09914BE038B20E
:1009B00029B288421DDA0598089B3AB221461844AC
:1009C00000F0C6FA08993FB279180891ABEB07001E
:1009D000BAF1000F0B9003DC9DF84000020705D52B
:1009E000059800F801800999491C0991CDF830A0BB
:1009F00029E00598089B2AB22146184400F0A8FA7D
:100A000008987F1B5844BAF1000F089003DC9DF84A
:100A100040100A0704D5411C0891059901F800808F
:100A200038B28245B8BF57460598089B3AB204EBE6
:100A30000B01184400F08CFA08983FB2381808905F
:100A4000AAEB07000B909DF8400000F0140010285E
:100A500040F0B480079A08990B988A18099982186F
:100A60000C988A1882180F98824280F2A780821A06
:100A70000A92A3E09DF84200622808D068280CD0B2
:100A80006A2810D06C2818D071280CD015E0316875
:100A900051F8040B3160C0B213E0316851F8040B17
:100AA000316080B20DE03068C21D22F00702326072
:100AB000D2E900010832326004E0316851F8040BD9
:100AC00031600021CDE902019DF84000010754D5B5
:100AD000DDE90223002B08BF002A4ED09DF800005C
:100AE00040F02000782848D1079812A930220A54F3
:100AF000401C431C9DF8002007930A543DE09DF8DC
:100B00004200622808D068280CD06A2810D06C28CF
:100B100018D071280CD015E0316851F8040B316001
:100B200040B213E0316851F8040B316000B20DE0BF
:100B30003068C21D22F007023260D2E9000108329B
:100B4000326004E0316851F8040B3160C117CDE91F
:100B50000201002902D507982D210AE0BDF84000C6
:100B6000810702D507982B2103E0C00705D5079818
:100B7000202112AA1154401C079012A80799014481
:100B800005919DF8001002A800F039F816E0012048
:100B90000790306850F8041B30608DF848100DE065
:100BA000012125229DF8000007918DF8482028B1E9
:100BB0009DF800008DF84900022107910F9A0798CF
:100BC0000A990C9C121A0898521A0B99121A099831
:100BD000521A121A9DF84000141B41073FF5A3ABAF
:100BE0002020002C8DF800007FF79DAB309F25461C
:100BF000FFF78DBB4FF0FF3031B0BDE8F08F2DE92E
:100C0000FC4707468A463C6950466F2808BF0825BE
:100C100005D0FFF76BFA782814BF0A251025D7E90D
:100C200000013C2680468946BAF1640F18BFBAF12C
:100C3000690F05D1002903D5D8F1000869EB4909EE
:100C4000B9F1000F08BFB8F1000F0CD1386B50B9E3
:100C5000082D3AD197F83800010736D530223B26C7
:100C600084F83B2031E08DF800A0404649462A46F2
:100C7000EB1700F047FD3032D0B2761E3A280196CD
:100C80000EDAA255404649462A46EB1700F03AFDD7
:100C900080465FEA010908BFB8F1000F05D108E0FE
:100CA0009DF800001218513AEBE7F868A119884244
:100CB000DBD3082D09D197F83800010705D5A05DD1
:100CC000302802D0761E3020A055C6F13C02BA6111
:100CD000A119F960386B824208DA821A3A624FF63B
:100CE000EF70398F01403987BDE8F38700280ED5B2
:100CF00097F8380000F01400102808D17B6B796950
:100D0000386A5B1A1B1A9A1A002AC8BF3A62BDE8F1
:100D1000F3872DE9D04306460F4614464FF00008EE
:100D2000DFF8449012E0E00707D542464B463046D4
:100D3000394600F00DFC06460F46404649464246FD
:100D40004B4600F005FC641080468946002CEAD131
:100D500030463946BDE8D083CBCCCC0CA086010010
:100D60000000F03F84D7974100002440F8B50546C5
:100D70000E4617461C4600205CB117F8011BB068F0
:100D8000A847B06030B1F06A401CF0620020641ED9
:100D9000F3D1F2BD4FF0FF30F2BD0000686A6C7411
:100DA0007A4C00007072696E74665F733A20256E2B
:100DB00020646973616C6C6F776564007072696E32
:100DC00074663A2062616420256E20617267756DD9
:100DD000656E74007072696E74665F733A2062614A
:100DE0006420257320617267756D656E7400000064
:100DF000000000006E616E004E414E00696E66009C
:100E0000494E4600300030B5016884684218416898
:100E100002EB5103C90703D54C4401E0491C08D13A
:100E20009A4218BF12F9011B01D10C3030BD12F8E3
:100E3000015B002904F8015BF0D4491EF7D5EFE708
:100E4000C9B202788A421AB11CBF10F8012FF9E723
:100E500018BF002070478268521C8260426832B11D
:100E60000268531C036011704168491E416070475D
:100E700080B500B906A005490B681BB122220021EC
:100E8000984701E000F056FD222002BD1C0600201C
:100E9000636F6E73747261696E742068616E646CE6
:100EA00065723A20626164206D65737361676500E5
:100EB00000F10103810704D010F8011B820781B102
:100EC000FAD10268A2F10131914311F0803104BFDF
:100ED00050F8042FF6E709BAB1FA81F100EBD1001E
:100EE000401CC01A70477047FEE7FEE7FEE7FEE7CA
:100EF0007047704770477047C9B2830706D0521ECB
:100F000022D310F8013B9942F7D11FE0083A13D3DE
:100F100002F1040241EA012141EA014150F8043B97
:100F2000121F21BF4B40A3F1013C2CEA030C1CF023
:100F3000803FF3D0C9B2001F083210F8013B521EA7
:100F400028BF91EA030FF8D818BF0120401E704750
:100F500062B38B0708D0521E11F8013B00F8013B29
:100F600000F024808B07F6D1830740F0208000BF7B
:100F7000103A07D330B4B1E83810103AA0E838106E
:100F8000F9D230BC530724BFB1E80810A0E808101C
:100F900044BF51F8043B40F8043BD20724BF31F86A
:100FA000022B20F8022B44BF0B7803707047121FEE
:100FB00017D35B0009D151F8043B20F8023B1B0C0E
:100FC000121F20F8023BF6D20BE051F8043B00F868
:100FD000013B1B0A20F8023B1B0C121F00F8013BCF
:100FE000F3D238BF121D521E24BF11F8013B00F886
:100FF000013BF8D870472E0010B5144600F002F8F7
:10100000226010BDC1F30A5343B14A0012F5001F1C
:1010100028D2A3F2FE32A1EB0251704750EA410CF4
:1010200020D001F0004C31EA0C01B1FA81F204BF8A
:10103000B0FA80F3D2180B3AB2F120032CBF00FAB9
:1010400003F1914041EA0C013EBFC2F1200C20FAAD
:101050000CF319439040524240F2FD33D21A01EB97
:101060000351704700227047F0B540F2FF7581EAE6
:10107000030C0CF0004C15EA11541DBF15EA135770
:10108000AC42AF42E5E0BC41C1F31301C3F313032B
:10109000801A994143F4801304D2641E0018494118
:1010A00080185941C90241EA5051B1FBF3F603FBE4
:1010B0001611A2FB0675D7EBC020A94102D2761EFD
:1010C00080185941C90241EA5051B1FBF3FE03FBBC
:1010D0001E11A2FB0E75D7EBC020A94103D2AEF1C1
:1010E000010E80185941890241EA9051760546EA7D
:1010F0008E2EB1FBF3F603FB1611A2FB0675D7EBA0
:101100008020A94102D2761E80185941C90241EAC5
:1011100050514EEA060EB1FBF3F603FB1611A2FB8B
:101120000675D7EBC020A94102D2761E801859411E
:10113000C90241EA5051B1FBF3F703FB1711A2FBBF
:101140000735D3EBC020A94167F100070CBF00426F
:1011500047F0010766F3D5274FEA1E31B80814F5AA
:10116000806412DDBD0775F1004250EB0E5051EB6B
:10117000045111F5801F5CBF41EA0C01F0BD4CF039
:101180007F6141F0E0410020F0BDBD076D0840EAFD
:101190000E5041F48011D4F10104B4F120060ADAB2
:1011A000C4F120060200E04001FA06F3E1401843D2
:1011B000B24015430EE0342C13DCC6F1200445EA9E
:1011C00040056D0820FA06F2154321FA06F0A14009
:1011D0000D43002175F1004250F1000051EB0C016C
:1011E000F0BD00205FEA0C01F0BDCFB992185B4161
:1011F000B3FA83F704BFB2FA82F6BF190B3FB7F117
:1012000020062FBF02FA06F3BB40C7F1200622FAE0
:1012100006F638BF3343BA401CB1E419641E33E705
:101220007F4231F00041B1FA81F404BFB0FA80F698
:10123000A4190B3CB4F120062FBF00FA06F1A1401F
:10124000C4F1200620FA06F638BF3143A0403C1B0B
:101250001AE7AC421ABF05EA1357AF4212E050EA50
:1012600041061CBF52EA4306BFE750EA4107304639
:1012700061461CBF41EA0551F0BD52EA430C08BF6C
:10128000C143F0BD00204FF4001616EB410F98BF8C
:1012900016EB430F08BF16EB410F24BFC14305E017
:1012A00016EB430F0CBF61464CEA0551F0BD000040
:1012B000400D40F21E4C40EAC120BCEB115C40F0F6
:1012C000004003D48CF30701C84070476FEAE17017
:1012D0007047000050B1B0FA80F18840C91CC1F5D8
:1012E0008461090501EBD021400570470146704734
:1012F00070B491EA030F4FF0004540F1BF806B409E
:10130000841A71EB030604D26E40001BB14112191E
:1013100073414FF4001C1CEB410F34BF7CEB4306C0
:1013200083E00C0DA4EB1356362E00F37C80012EC7
:1013300045EAC32341DC43EA525312BFD202920270
:101340005B08240545EAC12141EA5051D2EBC02097
:10135000994125D407D1B0FA80F610FA06F162D08F
:101360000020203608E0B1FA81F6B140C6F1200233
:1013700020FA02F21143B0404FEAF474B4EB465441
:1013800034F001064FEA74040AD8D6F50016760D3B
:1013900004F00044F04061FA06F25040F140484049
:1013A000C00A40EA415021F0004128BF5FEA5005E1
:1013B00050F1000044EBD12135E0DB0A45EAC121C0
:1013C000C90AB6F120050EDD42EA0242120CC5F14F
:1013D000200603FA06F6EB4042EA06056D42984104
:1013E00061F100010DE062FA06F5F240554063FA42
:1013F00006FC82EA0C02F3405A406D42904161EBD8
:10140000030111F4801F05D1641E620502D06D0036
:101410004041494121F48011430875F1004350F1E6
:10142000000041EB045170BC70471CEB410F15D21A
:1014300023F0004352EA43060BD04FEA4C0CBCEBBE
:10144000410F04D80C0D661E342EB7DDEBE7801A71
:10145000994150EA410608BF0021E4E708BF1CEBB0
:10146000430F28BF6FF00001DDE7000070B491EA80
:10147000030F4FF000457FF543AF6B40841A71EBCB
:10148000030603D2001BB141121973414FF4001C33
:101490001CEB410F34BF7CEB430442E00C0DA4EB8A
:1014A0001356352E4FDC45EAC323DB0A45EAC1213A
:1014B000C912B6F120050DDD63FA05F6EB4086EAA8
:1014C0000305124218BF45F00105C01851F1000193
:1014D0000CD213E062FA06F5F2405540F3415A404F
:1014E000B340F3405A408018594107D349085FEA96
:1014F00030005FEA350528BF45F0010501F5801190
:10150000420875F1004250F1000041EB04514E00D9
:1015100016F5001F70BC38BF70470020090D090583
:1015200070471CEB410F10D252EA43060BD0BCEBC4
:10153000410F05D80C0DAB43661E342EB6DD02E01C
:10154000AB438018594170BC704770BC70470000B5
:1015500030B540F2FF7C1CEA11541DBF1CEA135544
:10156000644565453FE0641981EA030C6FF35F53FE
:101570000CF0004C43F48013C90241F0004141EAF1
:10158000505EC5021100A5FB020200284FF00000CA
:10159000EEFB01204FF00001E3FB052118BF42F0F4
:1015A0000102401800214941E3FB0E01A4F58064CB
:1015B0000D0302D292184041494154F1010470DDFB
:1015C000450872F1004250F1000051EB0451A1F5C1
:1015D000801102D441EA0C0130BD40F2FF7E4CEA9A
:1015E0000E51002030BD0CEA1355644518BF654507
:1015F00081EA030C0CF0004C41D050EA410E1CBFB4
:1016000052EA430E02E06146002030BD24422C44E1
:101610001BD15FEA050EF6D0090302BF0146002088
:10162000AEF1140EB1FA81F5AEEB050401FA05FE38
:101630000C35C5F1200100FA05F5C8404EEA000E50
:101640006FF35F5343F480139CE733F00043B3FA26
:1016500083F504BFB2FA82FE75440B3D641BB5F1FD
:10166000200E2FBF02FA0EF3AB40C5F1200E22FA76
:101670000EFE38BF43EA0E03AA40641C7CE750EA22
:10168000410E14BF52EA430E6FF000014FF40015F3
:1016900015EB430F8EBF194615EB410F9DE7B4D8EC
:1016A00030BDD4F10104B4F120050FDAC4F12005F6
:1016B000520828BF42F0010210FA05FE01FA05F5B2
:1016C0007244E2BFE0402843E1400FE0352C9ADC51
:1016D000C5F1200452EA400220FA05F218BF42F098
:1016E000010231FA05F0A1400A43002172F10042E3
:1016F00050F1000051EB0C0130BD00000048704774
:1017000068000020BBBBE1B1B2F5803F80F07E8075
:10171000022A1ED98C46B1FBF2F102FB11C31B0455
:1017200043EA1043B3FBF2FC02FB1C3380B240EAF5
:101730000343B3FBF2F002FB103240EA0C400023FB
:101740007047022A05D98446B0FBF2F002FB10C2B2
:1017500070474AB105D100F0010249085FEA300044
:10176000704700220023704700F0E8B80B00020029
:10177000002100207047904271EB030CF6D3B3F5C3
:10178000803F2FD2F0B5B3FA83F7B1FA81F4A7F115
:101790000F0E3D1B5340CEF1200602FA0EF2F3412C
:1017A0005340B5F10F0746D80F3C2C444140C4F1DB
:1017B0002006A040F1414140B1FBF3F603FB1611B6
:1017C000A2FB0645001BA94102D2761E8018594192
:1017D00080EA010221FA0EF362FA0EF200215A4069
:1017E0003046F0BD30B4B1FBF3FC03FB1C11A2FB8F
:1017F0000C45001BA94103D2ACF1010C80185941E2
:1018000030BC02460B46604600217047B2F1807F33
:1018100065D3F0B5B2FA82F7B1FA81F4C7F10F06D9
:101820003D1B22FA06F307F1110EF24120355A4012
:10183000B5F10F07B8D94140C4F12006A040F141ED
:101840004140B1FBF3FC03FB1C11A2FB0C45001B48
:10185000A94103D2BCF1010C801859410F2F12D3BA
:101860000F3FC90341EA5041B1FBF3F603FB1611E8
:10187000A2FB0645D4EBC030A94102D2761E8018E7
:10188000594146EACC3C07B34140C7F12006B84075
:10189000F1414140B1FBF3F603FB1611A2FB0645F3
:1018A000001BA94102D2761E8018594180EA01022C
:1018B00021FA0EF3C7F1200462FA0EF20CFA07F0D7
:1018C0005A402CFA04F13043F0BD80EA010221FABB
:1018D0000EF3002162FA0EF260465A40F0BD8C46CB
:1018E000B1FBF2F102FB11C31B0243EA1063B3FB2D
:1018F000F2FC02FB1C331B024CEA002043EA10639B
:10190000B3FBF2FC02FB1C331B024CEA002043EA4F
:101910001063B3FBF2FC02FB1C331B024CEA0020F9
:1019200043EA1063B3FBF2FC02FB1C324CEA0020DA
:1019300000237047012000F003B80000704700004A
:1019400080B500F007F8024A11001820ABBEFBE793
:101950002600020010B500F03BF80200002300242E
:10196000E4431068A04203D011000220ABBE136014
:101970005068A04203D0111D0220ABBE536010BDC1
:10198000F0B583B0040000F023F8A10047183D68CB
:101990000026F643B54216D1AFF300803D68B5424C
:1019A0000FD100BF09A00090002C01D1002000E061
:1019B000042001900320029069460120ABBE05007F
:1019C0003D60AFF30080280003B0F0BD3A747400AE
:1019D0000048704760000020FEFF02800280038004
:1019E000038002800280FEFF000000F8000000007B
:1019F000000000333000000000100C06100C060040
:101A0000000000000000000040C07840C0784000A6
:101A1000043F04043F040400007088FC0830000008
:101A2000001820FF211E0000F008F000E018000060
:101A300000211C031E211E0000F008887000000019
:101A40001E2123241927211010160E00000000006B
:101A50000000000000000000000000E01804020088
:101A6000000000071820400000020418E0000000F9
:101A70000040201807000000404080F080404000F7
:101A80000202010F01020200000000F0000000004D
:101A90000101011F01010100000000000000000021
:101AA00080B0700000000000000000000000000096
:101AB000000101010101010100000000000000001F
:101AC00000303000000000000000000080601804BA
:101AD000006018060100000000E010080810E00097
:101AE000000F102020100F00001010F80000000060
:101AF0000020203F202000000070080808887000A7
:101B00000030282422213000003008888848300026
:101B10000018202020110E000000C02010F8000046
:101B200000070424243F240000F8088888080800DF
:101B30000019212020110E0000E0108888180000F4
:101B4000000F112020110E0000380808C8380800C6
:101B50000000003F00000000007088080888700046
:101B6000001C222121221C0000E010080810E000C7
:101B70000000312222110F00000000C0C000000050
:101B80000000003030000000000000800000000075
:101B9000000080600000000000008040201008006D
:101BA0000001020408102000404040404040400036
:101BB0000404040404040400000810204080000011
:101BC0000020100804020100007048080808F00016
:101BD0000000003036010000C030C828E810E000E6
:101BE0000718272423140B000000C038E000000071
:101BF000203C23020227382008F8888888700000DB
:101C0000203F202020110E00C030080808083800AE
:101C1000071820202010080008F808080810E00025
:101C2000203F202020100F0008F88888E8081000C6
:101C3000203F20202320180008F88888E80810009A
:101C4000203F200003000000C030080808380000D2
:101C500007182020221E020008F808000008F808D3
:101C6000203F210101213F20000808F8080800005A
:101C70000020203F2020000000000808F80808008D
:101C8000C08080807F00000008F888C02818080005
:101C9000203F20012638200008F80800000000003E
:101CA000203F20202020300008F8F800F8F8080035
:101CB000203F003F003F200008F830C00008F8082F
:101CC000203F200007183F00E01008080810E0003F
:101CD0000F10202020100F0008F808080808F00056
:101CE000203F210101010000E01008080810E00079
:101CF0000F18242438504F0008F88888888870000E
:101D0000203F2000030C30200070880808083800AD
:101D10000038202121221C00180808F808081800A3
:101D20000000203F2000000008F808000008F80824
:101D3000001F202020201F000878880000C83808D5
:101D4000000007380E010000F80800F80008F8004D
:101D5000033C0700073C03000818688080681808E7
:101D600020302C03032C30200838C800C838080065
:101D70000000203F2000000010080808C8380800B4
:101D80002038262120201800000000FE0202020058
:101D90000000007F40404000000C30C00000000008
:101DA000000000010638C00000020202FE00000030
:101DB000004040407F0000000000040202020400D6
:101DC0000000000000000000000000000000000013
:101DD00080808080808080800002020400000000FB
:101DE00000000000000000000000808080800000F3
:101DF0000019242222223F2008F8008080000000E1
:101E0000003F112020110E000000008080800000A3
:101E1000000E112020201100000000808088F800B2
:101E2000000E112020103F200000808080800000E4
:101E3000001F222222221300008080F08888881848
:101E40000020203F20200000000080808080800053
:101E5000006B94949493600008F8008080800000E8
:101E6000203F210000203F200080989800000000C3
:101E70000020203F202000000000008098980000F3
:101E800000C08080807F000008F800008080800013
:101E9000203F24022D302000000808F80000000038
:101EA0000020203F202000008080808080808000F3
:101EB000203F20003F20003F808000808080000085
:101EC000203F210000203F20000080808080000013
:101ED000001F202020201F00808000808000000044
:101EE00080FFA12020110E00000000808080800073
:101EF000000E112020A0FF80808080008080800064
:101F000020203F2120000100000080808080800090
:101F10000033242424241900008080E08080000005
:101F20000000001F20200000808000000080800052
:101F3000001F202020103F208080800000808080B3
:101F400000010E3008060100808000800080808043
:101F50000F300C030C300F00008080008080800068
:101F60000020312E0E312000808080000080808093
:101F700080818E7018060100008080808080800043
:101F80000021302C2221300000000000807C020261
:101F900000000000003F404000000000FF00000083
:101FA00000000000FF0000000002027C8000000032
:101FB0000040403F0000000000060101020204044E
:101FC00000000000000000002DE9F04F87B000F095
:101FD000C1F95FF4E13000F0D9F94FF4A06000F0EE
:101FE00043FA02A800F092FA0598B849B0FBF1F064
:101FF00000900498B549B0FBF1F30398B349B0FBE6
:10200000F1F20298B149B0FBF1F1B14800F004FBE4
:1020100000F016FB00F070FB00F01BFC00F0C1FCB0
:1020200000F057FDA6A20021002000F0B1FDA5A2FE
:102030000321002000F0ACFDA3A20621002000F047
:10204000A7FD40F27121042000F0F8FDA14C20888A
:10205000B0F5004F1ADB4FF6FF7120884840401C56
:1020600020809D4802885140491C01802088FFF74C
:1020700031F99A4A9A4BFFF76BFA0022994BFFF716
:1020800067FA00F00DFE984908600AE02088FFF723
:1020900021F9924A924BFFF75BFA00F001FE924958
:1020A0000860924E924D2888FFF714F90022914B58
:1020B000FFF74EFA00F0F4FD30608F4FDFF81CA2FE
:1020C000DFF81CB28D480088FFF704F952465B46E2
:1020D000FFF73EFA00228A4BFFF73AFA00F0E0FDE4
:1020E0003860DFF82082306800F00EFECDE9000194
:1020F000854A2021404600F02BFE844E7A48006835
:1021000000F002FECDE90001814A2021300000F0FC
:102110001FFEDFF80092386800F0F6FDCDE90001FF
:102120007D4A2021484600F013FE42460021182037
:1021300000F02EFD18220521032000F0A4FC61A26E
:102140000321002000F024FD32000321182000F0BC
:102150001FFD18220821062000F095FC5AA2062136
:10216000002000F015FD4A460621182000F010FD61
:102170002888FFF7AFF800225E4BFFF7E9F902006D
:102180000B002988654800F047FA5FF00008DFF887
:102190009091514E3088FFF79DF842464B46FFF72D
:1021A000D7F9604A604BFFF7D3F902000B00318882
:1021B0005E4800F031FA2088FFF78CF852465B4603
:1021C000FFF7C6F902000B002188594800F024FAF5
:1021D0004A480088FFF77EF852465B46FFF7B8F999
:1021E0000022474BFFF7B4F902000B004348018877
:1021F000504800F011FA5048006800F085FDCDE924
:1022000000013E480088FFF765F852465B46FFF73D
:102210009FF900223A4BFFF79BF90022474BFEF74C
:1022200023FF0022464BFEF71FFFDDE90023FFF7E7
:102230005FF800F035FD40490860424F386800F013
:1022400063FD82468B463088FFF744F842464B4692
:10225000FFF77EF9334A344BFFF77AF900223A4B05
:10226000FEF702FF0022364BFEF7FEFE52465B46AB
:10227000FFF73EF800F014FD38602F48006800F0CA
:1022800043FD02000B00314800F0C6F9386800F049
:102290003BFD02000B002E4800F0BEF94FF4FA702F
:1022A00000F0FEF9288815490880288830802888A1
:1022B00020802888401C288000F0D9FCC6E600BF9A
:1022C000553A0000493A0000503A000040420F00E1
:1022D0009833000822060020240600207B14AE4715
:1022E000E17A943F0000F0BF0C06002008060020B1
:1022F000280600200000F43F1006002026060020DB
:1023000000003940980500206C350008B805002011
:1023100074350008D80500207C35000854340008C6
:1023200000000440FCA9F1D24D62503F7434000813
:1023300094340008B43400081406002000408F4094
:102340000020AC40180600200000594084350008E9
:102350008C3500081CB50121102000F043F94FF422
:102360000050ADF8000010208DF8030003208DF818
:102370000200054C6946200000F00CFD4FF40051AE
:10238000200000F08BFD13BD0010014038B586B071
:10239000040001214FF4804000F024F901210420C1
:1023A00000F020F94FF40070ADF8000018208DF80F
:1023B000030003208DF80200234D6946280000F039
:1023C000E9FC4FF48060ADF8000004208DF80300B4
:1023D0006946280000F0DEFC02940020ADF81400ED
:1023E0000C20ADF812000020ADF810000020ADF870
:1023F0000E000020ADF80C00144D02A9280000F0DA
:1024000055FD0121280000F0BFFD25208DF80400B6
:1024100003208DF8050003208DF8060001208DF8BB
:10242000070001A800F025F807B030BD10B5074C33
:1024300040F22551200000F0BAFD002802D0200013
:1024400000F0B1FD10BD000000080140003801405F
:1024500038B504000D0020000100C9B2002000F0D2
:1024600011FE200032BD000022490143224A1160C2
:102470007047F0B4002200230F24C17800291FD038
:102480001D49096811F4E061D1F5E061090AD1F153
:1024900004052B00CC4045789D4086782640354386
:1024A0002D012A00154D0678AA550125067816F04B
:1024B0001F06B540124E07787F1146F8275009E0F5
:1024C0000121057815F01F05A9400E4D06787611FB
:1024D00045F82610F0BC7047042805D10A490A685F
:1024E00052F004020A6004E007490A6832F004026C
:1024F0000A6070470000FA050CED00E000E400E01F
:1025000000E100E080E100E010E000E02DE9F04FA4
:1025100001000022002500200026394FD7F800C016
:102520001CF00C0C6346002B04D0042B05D0082BA8
:1025300006D023E0334A0A6022E0324A0A601FE0F4
:102540003A6812F470123B6813F480331800920C4E
:10255000921C1500002804D12B4A02FB05F20A60E8
:102560000BE03A68920304D5274A02FB05F20A60A1
:1025700003E0244A02FB05F20A6001E0214A0A60F6
:102580003C6814F0F0042409DFF8809019F804E0A6
:102590000A6832FA0EF24A603B6813F4E0631B0AE1
:1025A00019F803804A6832FA08F28A603A6812F42D
:1025B0006052D20A19F80290D1F804A03AFA09FA46
:1025C000C1F80CA03F6817F44047BF0BDFF840A0EC
:1025D0001AF807A0D1F80CB0BBFBFAFBC1F810B099
:1025E000BDE8F08F0A00D2B2002A04D0094A13686D
:1025F0000343136003E0074A136883431360704783
:102600000410024000127A0000093D000000002082
:1026100010000020181002400EB4C0B5024603A8F6
:1026200000210190009101AB0121044878440C3055
:10263000FDF75FFD06BC5DF810FB00BFE90E000072
:1026400080B57FF00400FFF747FF2448244909685C
:10265000244AB1FBF2F1017001784FF47A704143E2
:102660002148018001BD10B41C4A127802FB00F21F
:102670001E4B1A601E4A002313601E4B1C6854F048
:1026800001041C601C68210011F00114012CF9D018
:102690001C68640864001C600023136010BC704751
:1026A00010B403009BB2104909884B430F490B60DB
:1026B0000F4900230B600F4B1C6854F001041C6091
:1026C0001C68220012F00114012CF9D01C68640867
:1026D00064001C6000230B6010BC70472A060020B9
:1026E0001400002000127A002006002014E000E010
:1026F00018E000E010E000E01CB501210820FFF721
:1027000071FFC020ADF8000010208DF803000320F9
:102710008DF80200804C6946200000F03BFBC02190
:10272000200000F0BBFB13BD38B57B48016821F0E9
:1027300070410160016851F040510160774C012007
:102740002060774D012028600420FFF78CFF0020D7
:1027500020600420FFF787FF0020286031BD38B5D6
:102760006D48016821F070410160016851F04051ED
:1027700001606B4C00202060684D00202860042020
:10278000FFF771FF01202060012028600420FFF77F
:102790006AFF31BD38B500245F48016821F07041FF
:1027A0000160016851F00041016001205B4908604F
:1027B0000120FFF758FF5A4D012028600120FFF744
:1027C00052FF58480068002808D0641C2000C0B29E
:1027D000FB28F6DBFFF7C3FF012002E000202860A2
:1027E000002032BD70B504004B48016821F07041F3
:1027F0000160016851F040510160494D002028609E
:1028000000263000C0B208281BDA2000C0B2C00980
:10281000002803D001204149086002E000203F4920
:10282000086064000220FFF71EFF012028600220DC
:10283000FFF719FF002028600220FFF714FF761C25
:10284000DFE770BD03200100481EC9B20029FAD19C
:1028500070471CB501210420FFF7C4FEC020ADF86D
:10286000000010208DF8030003208DF802002E4C8C
:102870006946200000F08EFAC021200000F00EFB17
:1028800013BD38B5294C01202060294D0120286056
:10289000FFF7D8FF00202060FFF7D4FF002028605A
:1028A000FFF7D0FF31BD10B50020214908601F4C53
:1028B00000202060FFF7C6FF0120206010BD10B58A
:1028C00001201A490860FFF7BDFF194C0120206064
:1028D000FFF7B8FF00202060FFF7B4FF10BD70B510
:1028E000040000252800C0B2082814DA200603D509
:1028F00001200E49086002E000200C490860FFF743
:10290000A1FF0B4E01203060FFF79CFF00203060DC
:1029100064006D1CE6E770BD000C01409C81214203
:10292000988121421C812142000801409C012142E2
:1029300098012142F8B504000D002E00B6B2360A07
:102940002F00FFF7F1FE8020FFF74CFFFFF722FF7B
:10295000002801D0002023E02000C0B2FFF742FF92
:10296000FFF718FF002801D0002019E03000C0B2A6
:10297000FFF738FFFFF70EFF002801D000200FE01F
:102980003800C0B2FFF72EFFFFF704FF002801D088
:10299000002005E0FFF7E3FE0220FFF781FE0120A3
:1029A000F2BD80B544F227510020FFF7C3FF4FF47A
:1029B00020610520FFF7BEFF01BD000010B5040037
:1029C000FFF75FFF7820FFF78AFFFFF778FF4020CF
:1029D000FFF785FFFFF773FF2000C0B2FFF77FFF0F
:1029E000FFF76DFFFFF75FFF10BD10B50400FFF7A5
:1029F00048FF7820FFF773FFFFF761FF0020FFF724
:102A00006EFFFFF75CFF2000C0B2FFF768FFFFF723
:102A100056FFFFF748FF10BD38B504000D00B5F1B3
:102A20005000C0B2FFF7E1FF2000C0B2000950F033
:102A30001000C0B2FFF7D9FF14F00F0050F00100F2
:102A4000C0B2FFF7D2FF31BD38B500252800C0B2B3
:102A5000082817DAB5F15000C0B2FFF7C6FF002012
:102A6000FFF7C3FF1020FFF7C0FF00200400200085
:102A7000C0B2802804DA0020FFF7A0FF641CF6E74C
:102A80006D1CE3E731BD2DE9F04104000D00160097
:102A9000270038002900C0B2C9B2884217D2B7F166
:102AA0005000C0B2FFF7A1FF0120FFF79EFF1020EA
:102AB000FFF79BFFB0464046C0B2802805DA0020F1
:102AC000FFF77CFF18F10108F5E77F1CE1E7BDE89F
:102AD000F08180B53220FFF7E3FDAE20FFF785FFE0
:102AE0000020FFF782FF1020FFF77FFF4020FFF755
:102AF0007CFF8120FFF779FFFF20FFF776FFA02002
:102B0000FFF773FFC020FFF770FFA620FFF76DFFF0
:102B1000A820FFF76AFF3F20FFF767FFD320FFF7EA
:102B200064FF0020FFF761FFD520FFF75EFF8020E4
:102B3000FFF75BFFD920FFF758FFF120FFF755FFA4
:102B4000DA20FFF752FF1220FFF74FFFDB20FFF7DD
:102B50004CFF4020FFF749FF2020FFF746FF0220EF
:102B6000FFF743FF8D20FFF740FF1420FFF73DFFE5
:102B7000A420FFF73AFFA620FFF737FFAF20FFF7AB
:102B800034FFFFF761FF00210020FFF745FF01BD83
:102B90002DE9F04704000D00160000275FF0000843
:102BA0005FF000094846C0B2305C002842D0484679
:102BB000C0B2305C203807002000C0B2792802DBA8
:102BC000002004006D1C2900C9B22000C0B2FFF72C
:102BD00023FF5FF0000A5046C0B208280CDA1648FE
:102BE0003900C9B25246D2B212EB0112805CFFF733
:102BF000E5FE1AF1010AEEE7691CC9B22000C0B275
:102C0000FFF70AFF5FF000084046C0B208280DDA5F
:102C100009483900C9B24246D2B212EB011210443F
:102C2000007AFFF7CBFE18F10108EDE7083419F13F
:102C30000109B7E7BDE8F087D819000838B50400E6
:102C40000D0045F2555000F05BFA2000C0B200F0D4
:102C50005CFA280080B200F05DFA00F060FA012111
:102C60004FF4807000F06CFA00F05EFA31BD10B5E0
:102C700000F055FA094C4FF40051200000F000F923
:102C8000012805D14FF40051200000F00BF904E0B9
:102C90004FF40051200000F001F910BD0010014078
:102CA00001F000428B1AA3F16051B1F5801F0ADBDD
:102CB000B1F17F6F1FD242EAC102C10071F1004140
:102CC00042EB507070470B15C3F10903212B10D252
:102CD000890241EA905180020128494141F00041B6
:102CE00021FA03F0C3F12003994071F100415041F2
:102CF0007047100070476FF0000013EB103F5CBF8F
:102D0000000E42EAC0507047C0F3C75181B1FF299D
:102D100006D0C110400721F0E04101F16051704739
:102D200041020CBF40F4E0016FF000410020704709
:102D300000F0004100020AD0B0FA80FC00FA0CF06A
:102D400001F16051A1EB0C5101EBD021400570471E
:102D500008B438B585B009AC002504940395002962
:102D60000EBF01950190491E0291009504AB01A987
:102D7000074878441A30FDF7BCF9019901B10D708C
:102D8000002858BF039806B030BC5DF808FB00BFB0
:102D9000C7E0FFFFF0B50022002300240025002635
:102DA000002791F803C01CF00F0C91F803E05FEAD4
:102DB000CE6E02D58A7852EA0C0C0A88D2B2002A6A
:102DC0002AD00268160000221400082C23D25FF0DB
:102DD000010E1EFA04F215000A882A401300AB42C5
:102DE00017D1A20015000F22AA401700BE431CFAFB
:102DF00005F21643CA78282A04D11EFA04FEC0F848
:102E000014E006E0CA78482A03D11EFA04FEC0F88E
:102E100010E0641CD9E706600A88B2F5807F2EDBDB
:102E20004268160000221400082C27D25FF0010E21
:102E300014F108021EFA02F215000A882A40130053
:102E4000AB4219D1A20015000F22AA401700BE43C1
:102E50001CFA05F21643CA78282A04D114F1080294
:102E60001EFA02F24261CA78482A05D114F108021A
:102E70001EFA02FEC0F810E0641CD5E74660F0BD03
:102E800010B40200002390680C00A4B2204201D0CC
:102E9000012000E00020C0B210BC70470A0092B2CE
:102EA000026170470A0092B2426170472DE9F84F03
:102EB00086B004000D00002600275FF000085FF0D8
:102EC00000095FF0000AA8890028A346218A4CF671
:102ED000FF700140E8880143009100982082A18999
:102EE0004EF6F3100140A888014328890143688900
:102EF000014300910098A081A18A4FF6FF40014054
:102F0000A889014300910098A08201A8FFF7FEFA6A
:102F10001C48834501D1049900E00399A08900046D
:102F200007D5192000FB01F02A685200B0FBF2F22D
:102F300006E0192000FB01F02A689200B0FBF2F2D3
:102F40006420B2FBF0F6360133001B097FF063000A
:102F500000FB0323A089000408D5D8003230642781
:102F6000B0FBF7F010F00700064307E0180132301D
:102F70006427B0FBF7F010F00F000643268107B07E
:102F8000BDE8F08F003801400A00D2B2002A04D018
:102F9000828952F40052828104E083894DF6FF72E7
:102FA0001340838170478088C005C00D7047F0B41E
:102FB000040000270020002200260B0040F66A15BE
:102FC0009BB2AB420D00EDB26D09EDB20B009BB2AE
:102FD00013F01F035FF0010C1CFA03F3012D02D163
:102FE000A089034006E0022D02D1208A034001E0BF
:102FF000A08A03400A0092B2120A92B21CFA02F2AC
:1030000020880240002B03D0002A01D0012000E0DC
:103010000020C0B2F0BC7047F8B5DFF8D040A8255A
:103020000026270032002900380000F09BF803201A
:10303000206103206061DFF8B800A061DFF8B41000
:10304000E1614FF4806121620021A162002161628F
:103050000021E1622066DFF8A00060661020A06613
:10306000002020670020E066002060670020102814
:1030700007D2DFF8881042421144C97B2154401C1A
:10308000F5E7F1BD2DE9F04104000D00DFF85C80AB
:1030900047463878002801D1FFF7BEFFEFF31181D2
:1030A000202080F31188182000FB04F0404410F128
:1030B0001802D3685B1C9068834201D10020030092
:1030C0005069022802D110698342FCD01069834202
:1030D00007D05068D768384406003570D3600120A7
:1030E00000E0002081F31188BDE8F081A0040020F9
:1030F00060350008A0000020F80500203C350008DD
:10310000010089B20B4A116070470100C9B20A4A36
:1031100011607047010089B2084A116070474AF691
:10312000AA200449086070474CF6CC400149086069
:10313000704700000030004004300040083000407C
:103140000A00D2B2002A04D0054A13680343136070
:1031500003E0034A136883431360704700000000D4
:10316000042004E062F30F2262F31F42401810F0C3
:10317000030308D0C91A1FD3DB0748BF00F8012D8D
:1031800028BF20F8022D130030B41446154610391C
:1031900028BF20E93C00FAD8490728BF20E90C00E5
:1031A00048BF40F8042D890028BF20F8022D48BFF1
:1031B00000F8012D30BC7047C91818BF00F8012D68
:1031C000CB0728BF00F8012D7047000080B53E49AD
:1031D000086850F0010008603C4A13683C4803400E
:1031E00013600B683B4803400B60086830F4802094
:1031F0000860106830F4FE0010605FF41F0036496C
:10320000086000F005F85FF000603449086001BD17
:1032100080B500F001F801BD82B0002001900020CF
:1032200000902949086850F480300860086810F45C
:10323000003000900198401C01900098002803D1B4
:103240000198B0F5A06FF1D10868800302D5012084
:10325000009001E0002000900098012831D1204822
:10326000026852F010020260026892089200026046
:10327000026852F0020202601448026802600268AA
:103280000260026852F480620260026832F47C12CA
:103290000260026852F4E81202600A6852F080721A
:1032A0000A600A689201FCD50168890889000160FA
:1032B000016851F002010160016811F00C01082958
:1032C000FAD102B070470000001002400410024022
:1032D0000000FFF8FFFFF6FE0810024008ED00E0D6
:1032E0000020024080B50D49794430310C4A7A44BF
:1032F0002E32914203D00B49FFF7AAF802BD8DF898
:10330000000001226946012000F00EF8012802D1D8
:103310009DF8000002BD4FF0FF3002BDE4CCFFF786
:10332000E0CCFFF71800002080B5002802D400F0A0
:1033300003F802BD002002BD80B5002901D10020A4
:1033400002BD012801D0022802D100F004F802BD1C
:1033500000F011F802BD30B583B00C00150001205B
:10336000FEF70EFB00900194029569460520ABBE66
:10337000281A03B030BD18B583B0030014000093C1
:103380000191029469460520ABBE01221900201A62
:10339000AFF3008004B010BD535953434C4B3A2057
:1033A00025644D687A2C2048434C4B3A2025644DC7
:1033B000687A2C2050434C4B313A2025644D687A72
:1033C0002C2050434C4B323A2025644D687A0D0A2C
:1033D0000000000030B4002512E050F8042BD307A1
:1033E00044BF4A44521E091F042942F8045BFAD222
:1033F00013468C0744BF15809B1CC90748BF1D702E
:1034000050F8041B0029E8D130BC704710B50749BB
:1034100079441831064C7C44163404E00A68081DCF
:10342000114488470146A142F8D110BD08000000B0
:1034300024000000A1FFFFFF8C050000A000002079
:1034400000000000C3D9FFFFF4010000E20000000B
:1034500000000020646174613D252D35642C2042FC
:1034600075735F5620203D252E3266206D560D0A5D
:1034700000000000646174613D252D35642C2053EB
:1034800068756E745F563D252E3266206D560D0AA6
:1034900000000000646174613D252D35642C2043DB
:1034A0007572656E74203D252E3266206D410D0AC1
:1034B00000000000646174613D252D35642C2050AE
:1034C0006F77657220203D252E3266206D570D0ADC
:1034D0000000000000F00DF8002801D0FFF796FF73
:1034E000AFF300800020AFF30080FEF76DFD00F029
:1034F00002F80120704700F001B800000746384686
:10350000FEF71EFAFBE700000548014603B46846D3
:1035100080F30988AFF30080AFF30080FFF7DAFF94
:10352000A5EDF5FE38B504460D462846FFF7DAFE50
:10353000A84218BF0024204632BD00000000000051
:1035400000005454522052454747455300000000A4
:103550000148804701480047CD310008093500087F
:103560005465726D696E616C00000000252E326634
:103570006D560000252E32666D410000252E326604
:103580006D57000025666D57680D0A0025666D4170
:10359000680D0A00FFF7FEBFFFF7FEBFFFF7FEBF93
:1035A000FFF7FEBFFFF7FEBFFFF7FEBFFFF7FEBF4F
:1035B000FFF7FEBFFFF7FEBFFFF7FEBFFFF7FEBF3F
:1035C000FFF7FEBFFFF7FEBFFFF7FEBFFFF7FEBF2F
:1035D000FFF7FEBFFFF7FEBFFFF7FEBFFFF7FEBF1F
:1035E000FFF7FEBFFFF7FEBFFFF7FEBFFFF7FEBF0F
:1035F000FFF7FEBFFFF7FEBFFFF7FEBFFFF7FEBFFF
:10360000FFF7FEBFFFF7FEBFFFF7FEBFFFF7FEBFEE
:10361000FFF7FEBFFFF7FEBFFFF7FEBFFFF7FEBFDE
:10362000FFF7FEBFFFF7FEBFFFF7FEBFFFF7FEBFCE
:10363000FFF7FEBFFFF7FEBFFFF7FEBFFC0027014D
:103640000203040102030406070809020406080035
:10365000A24A040204010148050020980500204800
:1036600005002048050020FC000348050020FC0060
:10367000075C00002048000020E000F8FF1BAE12AD
:103680000008AE120008AE120008AE120008AE121A
:103690000008AE120008AE120008F8FF0BF60F008B
:0D36A00008AE120008AE120008FAFFFE008E
:0400000508003509B1
:00000001FF
